{
  "_format": "hh-sol-artifact-1",
  "contractName": "MessageSystem",
  "sourceName": "contracts/MessageSystem.sol",
  "abi": [
    {
      "anonymous": false,
      "inputs": [
        {
          "indexed": true,
          "internalType": "address",
          "name": "_from",
          "type": "address"
        },
        {
          "indexed": true,
          "internalType": "enum MessageSystem.Designation",
          "name": "_senderDesignation",
          "type": "uint8"
        },
        {
          "indexed": false,
          "internalType": "enum MessageSystem.Designation",
          "name": "_to",
          "type": "uint8"
        },
        {
          "indexed": false,
          "internalType": "string",
          "name": "message",
          "type": "string"
        }
      ],
      "name": "downMessageLog",
      "type": "event"
    },
    {
      "anonymous": false,
      "inputs": [
        {
          "indexed": true,
          "internalType": "address",
          "name": "_from",
          "type": "address"
        },
        {
          "indexed": true,
          "internalType": "enum MessageSystem.Designation",
          "name": "_senderDesignation",
          "type": "uint8"
        },
        {
          "indexed": false,
          "internalType": "enum MessageSystem.Designation",
          "name": "_to",
          "type": "uint8"
        },
        {
          "indexed": false,
          "internalType": "string",
          "name": "message",
          "type": "string"
        }
      ],
      "name": "horizontalMessageLog",
      "type": "event"
    },
    {
      "anonymous": false,
      "inputs": [
        {
          "indexed": true,
          "internalType": "address",
          "name": "_from",
          "type": "address"
        },
        {
          "indexed": true,
          "internalType": "enum MessageSystem.Designation",
          "name": "_senderDesignation",
          "type": "uint8"
        },
        {
          "indexed": false,
          "internalType": "enum MessageSystem.Designation",
          "name": "_to",
          "type": "uint8"
        },
        {
          "indexed": false,
          "internalType": "string",
          "name": "message",
          "type": "string"
        }
      ],
      "name": "upMessageLog",
      "type": "event"
    },
    {
      "inputs": [
        {
          "internalType": "address",
          "name": "_address",
          "type": "address"
        },
        {
          "internalType": "enum MessageSystem.Designation",
          "name": "_isWho",
          "type": "uint8"
        }
      ],
      "name": "addMember",
      "outputs": [],
      "stateMutability": "nonpayable",
      "type": "function"
    },
    {
      "inputs": [
        {
          "internalType": "address",
          "name": "_address",
          "type": "address"
        }
      ],
      "name": "deleteMember",
      "outputs": [],
      "stateMutability": "nonpayable",
      "type": "function"
    },
    {
      "inputs": [
        {
          "internalType": "address",
          "name": "_address",
          "type": "address"
        },
        {
          "internalType": "string",
          "name": "_message",
          "type": "string"
        }
      ],
      "name": "downMessage",
      "outputs": [],
      "stateMutability": "nonpayable",
      "type": "function"
    },
    {
      "inputs": [
        {
          "internalType": "address",
          "name": "_address",
          "type": "address"
        },
        {
          "internalType": "string",
          "name": "_message",
          "type": "string"
        }
      ],
      "name": "horizontalMessage",
      "outputs": [],
      "stateMutability": "nonpayable",
      "type": "function"
    },
    {
      "inputs": [
        {
          "internalType": "address",
          "name": "",
          "type": "address"
        }
      ],
      "name": "members",
      "outputs": [
        {
          "internalType": "enum MessageSystem.Designation",
          "name": "",
          "type": "uint8"
        }
      ],
      "stateMutability": "view",
      "type": "function"
    },
    {
      "inputs": [
        {
          "internalType": "address",
          "name": "_address",
          "type": "address"
        },
        {
          "internalType": "string",
          "name": "_message",
          "type": "string"
        }
      ],
      "name": "upMessage",
      "outputs": [],
      "stateMutability": "nonpayable",
      "type": "function"
    }
  ],
  "bytecode": "0x608060405234801561001057600080fd5b50610a17806100206000396000f3fe608060405234801561001057600080fd5b50600436106100625760003560e01c806308ae4b0c1461006757806311ffb1d4146100975780631c3ed41c146100b357806332318d52146100cf57806362d0d1c3146100eb578063d85abf5b14610107575b600080fd5b610081600480360381019061007c9190610600565b610123565b60405161008e91906106a4565b60405180910390f35b6100b160048036038101906100ac9190610600565b610143565b005b6100cd60048036038101906100c89190610805565b6101ad565b005b6100e960048036038101906100e49190610805565b610290565b005b61010560048036038101906101009190610886565b61043f565b005b610121600480360381019061011c9190610805565b6104a9565b005b60006020528060005260406000206000915054906101000a900460ff1681565b60008060008373ffffffffffffffffffffffffffffffffffffffff1673ffffffffffffffffffffffffffffffffffffffff16815260200190815260200160002060006101000a81548160ff021916908360028111156101a5576101a461062d565b5b021790555050565b6002808111156101c0576101bf61062d565b5b6000808473ffffffffffffffffffffffffffffffffffffffff1673ffffffffffffffffffffffffffffffffffffffff16815260200190815260200160002060009054906101000a900460ff16600281111561021e5761021d61062d565b5b1461022857600080fd5b60028081111561023b5761023a61062d565b5b8273ffffffffffffffffffffffffffffffffffffffff167f9e24fcc5d90c16576cfb42721b5104851c82e7ea321a59b1be7149a7b923034e600184604051610284929190610945565b60405180910390a35050565b600060028111156102a4576102a361062d565b5b6000808473ffffffffffffffffffffffffffffffffffffffff1673ffffffffffffffffffffffffffffffffffffffff16815260200190815260200160002060009054906101000a900460ff1660028111156103025761030161062d565b5b03610342576040517f08c379a0000000000000000000000000000000000000000000000000000000008152600401610339906109c1565b60405180910390fd5b6000808373ffffffffffffffffffffffffffffffffffffffff1673ffffffffffffffffffffffffffffffffffffffff16815260200190815260200160002060009054906101000a900460ff1660028111156103a05761039f61062d565b5b8273ffffffffffffffffffffffffffffffffffffffff167fdb809945ae1f3af56817ad30304d6ee5dbee8ef473b61b84102ce14e378d23596000808673ffffffffffffffffffffffffffffffffffffffff1673ffffffffffffffffffffffffffffffffffffffff16815260200190815260200160002060009054906101000a900460ff1684604051610433929190610945565b60405180910390a35050565b806000808473ffffffffffffffffffffffffffffffffffffffff1673ffffffffffffffffffffffffffffffffffffffff16815260200190815260200160002060006101000a81548160ff021916908360028111156104a05761049f61062d565b5b02179055505050565b600160028111156104bd576104bc61062d565b5b6000808473ffffffffffffffffffffffffffffffffffffffff1673ffffffffffffffffffffffffffffffffffffffff16815260200190815260200160002060009054906101000a900460ff16600281111561051b5761051a61062d565b5b1461052557600080fd5b600160028111156105395761053861062d565b5b8273ffffffffffffffffffffffffffffffffffffffff167f87e14fbd997df866843b6e5de96e7fad2a05fadb762f0eb6bdb22207b69e1d01600284604051610582929190610945565b60405180910390a35050565b6000604051905090565b600080fd5b600080fd5b600073ffffffffffffffffffffffffffffffffffffffff82169050919050565b60006105cd826105a2565b9050919050565b6105dd816105c2565b81146105e857600080fd5b50565b6000813590506105fa816105d4565b92915050565b60006020828403121561061657610615610598565b5b6000610624848285016105eb565b91505092915050565b7f4e487b7100000000000000000000000000000000000000000000000000000000600052602160045260246000fd5b6003811061066d5761066c61062d565b5b50565b600081905061067e8261065c565b919050565b600061068e82610670565b9050919050565b61069e81610683565b82525050565b60006020820190506106b96000830184610695565b92915050565b600080fd5b600080fd5b6000601f19601f8301169050919050565b7f4e487b7100000000000000000000000000000000000000000000000000000000600052604160045260246000fd5b610712826106c9565b810181811067ffffffffffffffff82111715610731576107306106da565b5b80604052505050565b600061074461058e565b90506107508282610709565b919050565b600067ffffffffffffffff8211156107705761076f6106da565b5b610779826106c9565b9050602081019050919050565b82818337600083830152505050565b60006107a86107a384610755565b61073a565b9050828152602081018484840111156107c4576107c36106c4565b5b6107cf848285610786565b509392505050565b600082601f8301126107ec576107eb6106bf565b5b81356107fc848260208601610795565b91505092915050565b6000806040838503121561081c5761081b610598565b5b600061082a858286016105eb565b925050602083013567ffffffffffffffff81111561084b5761084a61059d565b5b610857858286016107d7565b9150509250929050565b6003811061086e57600080fd5b50565b60008135905061088081610861565b92915050565b6000806040838503121561089d5761089c610598565b5b60006108ab858286016105eb565b92505060206108bc85828601610871565b9150509250929050565b600081519050919050565b600082825260208201905092915050565b60005b838110156109005780820151818401526020810190506108e5565b60008484015250505050565b6000610917826108c6565b61092181856108d1565b93506109318185602086016108e2565b61093a816106c9565b840191505092915050565b600060408201905061095a6000830185610695565b818103602083015261096c818461090c565b90509392505050565b7f4d656d626572206e6f7420696e206f7267616e69736174696f6e000000000000600082015250565b60006109ab601a836108d1565b91506109b682610975565b602082019050919050565b600060208201905081810360008301526109da8161099e565b905091905056fea26469706673582212206a3638296546eb436128dd193c4b9a83fde84471ce173abb0be0088fcd2ae1f464736f6c63430008110033",
  "linkReferences": {},
  "deployedLinkReferences": {}
}